:020000040800F2
:1000000090060020850300088D0300088F03000878
:100010009103000893030008950300080000000006
:10002000000000000000000000000000970300082E
:1000300099030008000000009B0300089D030008CE
:100040009F0300089F0300089F0300089F03000808
:100050009F0300089F0300089F0300089F030008F8
:100060009F0300089F0300089F0300089F030008E8
:100070009F0300089F0300089F0300089F030008D8
:100080009F0300089F0300089F0300089F030008C8
:100090009F0300089F0300089F0300089F030008B8
:1000A0009F0300089F0300089F0300089F030008A8
:1000B0009F0300089F0300089F0300089F03000898
:1000C0009F0300089F0300089F0300089F03000888
:1000D0009F0300089F0300089F0300089F03000878
:1000E0009F0300089F0300089F03000800F002F828
:1000F00000F03CF80AA090E8000C82448344AAF186
:100100000107DA4501D100F031F8AFF2090EBAE883
:100110000F0013F0010F18BFFB1A43F0010318473B
:100120000419000024190000103A24BF78C878C1CF
:10013000FAD8520724BF30C830C144BF04680C60ED
:10014000704700000023002400250026103A28BF35
:1001500078C1FBD8520728BF30C148BF0B60704739
:100160001FB501F058FC1FBD10B510BD01F017FC04
:100170001146FFF7F5FF00F008F801F035FC03B475
:10018000FFF7F2FF03BC01F03FFC482001F0B4FB95
:1001900040F2CF214FF4FA6000F014F9322409E064
:1001A00021464FF0804001F065FB0F2001F0BAFBC3
:1001B000601C84B2962CF3DB00BFFEE70021002018
:1001C000674A126842F48032654B1A6000BF644A85
:1001D000126802F40030491C10B9B1F5A06FF6D1D5
:1001E0005F4A126812F4003F01D0012000E00020B5
:1001F000012842D15B4A126842F01002594B1A6042
:100200001A46126822F003021A601A46126842F077
:1002100002021A60524A5268514B5A601A4652689A
:100220005A601A46526842F480625A601A4652680E
:1002300022F47C125A601A46526842F4E8125A605C
:100240001A46126842F080721A6000BF444A12686F
:1002500012F0007FFAD0424A526822F00302404B6B
:100260005A601A46526842F002025A6000BF3C4A85
:10027000526802F00C02082AF9D1704710B5FFF756
:100280009DFF10BD10B53648006840F001003449AC
:1002900008600846406834490840314948600846CB
:1002A0000068324908402E4908600846006820F47A
:1002B000802008600846406820F4FE0048604FF443
:1002C0001F008860FFF7DAFF4FF0006028490860E0
:1002D00010BD10B5002100200022214B5B6803F007
:1002E0000C0121B1042906D0082928D107E0214BAF
:1002F000214C236027E01F4B1F4C236023E0184B49
:100300005B6803F47010164B5B6803F480320223C1
:1003100003EB904022B9194B4343174C23600DE087
:100320000F4B5B6813F4003F04D0144B4343124C53
:10033000236003E00F4B43430F4C236003E00D4B5E
:100340000D4C236000BF00BF054B5B68C3F3031374
:100350000B4CE15C084B1B68CB40074C236010BD85
:1003600000100240002002400000FFF8FFFFF6FEF0
:1003700008ED00E000127A000000002000093D00B6
:10038000040000200948804709480047FEE7FEE7CF
:10039000FEE7FEE7FEE7FEE7FEE7FEE7FEE7FEE735
:1003A00004480549054A064B7047000085020008CD
:1003B000ED00000890000020900600209002002030
:1003C0009002002030B589B005460C460121084650
:1003D00000F05CFB0121042000F04BFB0420ADF891
:1003E000200018208DF8230003208DF8220008A992
:1003F000154800F08BF8ADF81850ADF81440002007
:10040000ADF81A00ADF8160005A94FF0804000F0D5
:100410006FFC7020ADF804000120ADF8060002204A
:10042000ADF80C0001A9400700F02AFD0821C8061C
:1004300001F0DAF80121880701F092F8012188071C
:1004400000F085FF09B030BD0008014010B504463A
:10045000CA48844208D10121042000F024FB002175
:10046000042000F020FB46E0C548844208D1012169
:10047000082000F018FB0021082000F014FB3AE0EF
:10048000C048844208D10121102000F00CFB00215B
:10049000102000F008FB2EE0BB48844208D1012167
:1004A000202000F000FB0021202000F0FCFA22E0D8
:1004B000B648844208D10121402000F0F4FA00211E
:1004C000402000F0F0FA16E0B148844208D1012142
:1004D000802000F0E8FA0021802000F0E4FA0AE031
:1004E000AC48844207D10121801500F0DCFA0021DC
:1004F000A01500F0D8FA10BD10B50121084600F093
:10050000D2FA0021012000F0CEFA10BD2DE9F04111
:10051000024600250026002000230024002791F831
:1005200003C00CF00F0591F803C01CF0100F03D0AE
:1005300091F802C04CEA0505B1F800C01CF0FF0FAD
:1005400031D0146800202BE04FF0010C0CFA00F3BE
:10055000B1F800C00CEA03069E4220D183004FF0A0
:100560000F0C0CFA03F7BC4305FA03FC4CEA040435
:1005700091F803C0BCF1280F06D14FF0010C0CFA22
:1005800000FCC2F814C00AE091F803C0BCF1480FA7
:1005900005D14FF0010C0CFA00FCC2F810C0401C51
:1005A0000828D1D31460B1F800C0BCF1FF0F34DDCE
:1005B000546800202EE000F1080C4FF0010808FA02
:1005C0000CF3B1F800C00CEA03069E4221D183006F
:1005D0004FF00F0C0CFA03F7BC4305FA03FC4CEA8E
:1005E000040491F803C0BCF1280F05D100F1080CF8
:1005F00008FA0CF8C2F8148091F803C0BCF1480F57
:1006000007D100F1080C4FF0010808FA0CF8C2F805
:100610001080401C0828CED35460BDE8F0814FF60E
:10062000FF710180022181700421C1707047024670
:10063000002093680B4201D0012000E000207047A9
:100640000146886880B2704702460020D3680B429A
:1006500001D0012000E0002070470146C86880B248
:10066000704701617047416170470AB1016100E064
:1006700041617047C16070474FF480320A43826124
:100680008161826182698269704702460020424B23
:1006900018684FF68073184040EA021008433E4B3A
:1006A000186070473D49C8617047F0B50A4600239D
:1006B00000240021002500F00046B6F1004F02D1D1
:1006C000354EF16901E0344E7168C0F3034583B2E1
:1006D00000F44016B6F5401F08D121F070612E4E8F
:1006E000766826F070662C4F7E6012E000F480166B
:1006F000B6F5801F06D1032606FA05F4A14341F0A2
:10070000706106E0460D360103FA06F6B14341F08A
:10071000706122B1460D360103FA06F6314300F04E
:100720000046B6F1004F02D11B4EF16101E01A4EB6
:100730007160F0BD30B500228B071C0F0F2303FA48
:1007400004F2154B08338C1053F824309343124CA9
:1007500008348D1044F8253023468C1053F824308B
:100760008C07240F00FA04F423430B4C08348D103B
:1007700044F8253030BD0A49086070470008014040
:10078000000C01400010014000140140001801401D
:10079000001C0140002001400000014000002042F8
:1007A000DC002042DB48006840F00100D9490860C5
:1007B00008464068D8490840D6494860084600685D
:1007C000D6490840D34908600846006820F48020D4
:1007D00008600846406820F4FE0048604FF41F009F
:1007E00088607047CB49096821F48031C94A11609B
:1007F0001146096821F480211160B0F5803F03D0D3
:10080000B0F5802F0ED106E0C249096841F480316D
:10081000C04A116007E0BF49096841F4A021BD4A00
:10082000116000E000BF00BF704710B50146002214
:10083000002300204A11012A02D1B64C236806E0A9
:10084000022A02D1B34C236A01E0B24C636A01F080
:100850001F02012494401C4201D0012000E000202E
:1008600010BD70B500240025002600BF3120FFF721
:10087000DCFF0646641CB4F5A06F01D0002EF5D055
:100880003120FFF7D2FF08B1012500E000252846FE
:1008900070BD014600209F4A106820F0F80040EA31
:1008A000C100106070479E490860704702460020F2
:1008B000984B586820F47C1042EA01031843954B8A
:1008C0005860704796490866704701460020914A73
:1008D000506820F003000843506070478D4840681E
:1008E00000F00C007047014600208A4A506820F052
:1008F000F00008435060704701460020854A506868
:1009000020F4E06008435060704701460020814AAF
:10091000506820F4605040EAC1005060704729B12F
:100920007C4A527A02437B4B5A7206E0794A527AE9
:10093000C343DBB21A40774B5A727047794908605B
:10094000704701460020734A506820F44040084335
:10095000506070470021744A11706E4A82F820106E
:10096000012802D0042808D103E001216E4A117049
:1009700004E005216C4A117000E000BF00BF704721
:100980006A49086070476349096A0143614A116214
:10099000704767490860704730B500210022002485
:1009A00000235C4D6D6805F00C0121B1042905D0D0
:1009B000082923D105E05F4D056022E05D4D05600B
:1009C0001FE0544D6D6805F47012524D6D6805F4CA
:1009D0008034022505EB92421CB9574D5543056002
:1009E0000BE04C4D6D6815F4003F03D0524D55435C
:1009F000056002E04F4D5543056002E04D4D056036
:100A000000BF00BF434D6D6805F0F00109094B4D73
:100A10006B5C0568DD4045603E4D6D6805F4E06146
:100A2000090A464D6B5C4568DD408560394D6D684F
:100A300005F46051C90A414D6B5C4568DD40C560F5
:100A4000344D6D6805F44041890B3D4D6B5CC568C4
:100A5000B5FBF3F5056130BD29B12E4A5269024359
:100A60002C4B5A6104E02B4A52698243294B5A614C
:100A7000704729B1274A92690243264B9A6104E0E4
:100A8000244A92698243234B9A61704729B1214AD3
:100A9000D26902431F4BDA6104E01E4AD2698243E5
:100AA0001C4BDA61704729B11A4AD2680243194BCC
:100AB000DA6004E0174AD2688243164BDA60704766
:100AC00029B1144A12690243124B1A6104E0114A17
:100AD000126982430F4B1A6170471A4908607047C8
:100AE0000F49C86470470B49C87170470948406A8C
:100AF00040F0807007494862704701460020054A6F
:100B000092680A4201D0012000E0002070470149AC
:100B100088727047001002400000FFF8FFFFF6FEE9
:100B200000004242D800424220100240800442426B
:100B30003C04424200127A0000093D0014000020EB
:100B4000240000204004424210B50446FF4884427D
:100B500008D10121C014FFF7A6FF0021E014FFF720
:100B6000A2FFC4E0B4F1804F08D101210846FFF78D
:100B7000A7FF00210120FFF7A3FFB8E0F44884425B
:100B800008D101210220FFF79BFF00210220FFF77F
:100B900097FFACE0EF48844208D101210420FFF721
:100BA0008FFF00210420FFF78BFFA0E0EA4884427A
:100BB00008D101210820FFF783FF00210820FFF75B
:100BC0007FFF94E0E548844208D101211020FFF71F
:100BD00077FF00211020FFF773FF88E0E048844290
:100BE00008D101212020FFF76BFF00212020FFF713
:100BF00067FF7CE0DB48844208D101214014FFF705
:100C000052FF00216014FFF74EFF70E0D648844287
:100C100009D10121C804FFF746FF00214FF400204D
:100C2000FFF741FF63E0D148844209D10121080563
:100C3000FFF739FF00214FF48010FFF734FF56E033
:100C4000CB48844209D101214805FFF72CFF002140
:100C50004FF40010FFF727FF49E0C648844208D14F
:100C600001214020FFF72CFF00214020FFF728FF43
:100C70003DE0C148844208D101218020FFF720FFD8
:100C800000218020FFF71CFF31E0BC48844208D1DE
:100C900001218015FFF714FF0021A015FFF710FFB9
:100CA00025E0B748844209D101210804FFF7FBFE83
:100CB00000214FF48030FFF7F6FE18E0B14884427F
:100CC00009D101214804FFF7EEFE00214FF4003066
:100CD000FFF7E9FE0BE0AC48844208D1012188040B
:100CE000FFF7E1FE00214FF48020FFF7DCFE10BD8E
:100CF00000220288954B98420ED09A4B98420BD016
:100D0000B0F1804F08D0924B984205D0914B984259
:100D100002D0914B984204D14FF68F731A404B8802
:100D20001A438E4B984207D08D4B984204D04FF611
:100D3000FF431A40CB881A4302808B8883850B8837
:100D40000385824B98420BD0864B984208D08C4B3F
:100D5000984205D08B4B984202D08B4B984201D1E0
:100D60000B7A038601238382704770B5002400222A
:100D70000023058C4FF6FE7635400584028C83886F
:100D8000048B4FF68F752C40B51E2C400D882C43DC
:100D9000751E2A400D892A434D882A436B4DA8426F
:100DA0000BD0704DA84208D0754DA84205D0754DA6
:100DB000A84202D0744DA84213D14FF6F7752A40CD
:100DC0004D892A434FF6FB752A408D882A434FF6FA
:100DD000FF652B404FF6FF552B408D892B43CD8966
:100DE0002B4383800483CD888586028470BD70B5D3
:100DF000002400220023058C4FF6EF763540058451
:100E0000028C8388048B48F6FF752C404FF6FF4513
:100E10002C400D882D0644EA15444FF6DF752A4014
:100E20000D892D0542EA15424D882D0542EA1542ED
:100E3000464DA84202D04B4DA8421BD14FF67F75BC
:100E40002A404D892D0542EA15424FF6BF752A40CA
:100E50008D882D0542EA15424FF6FF352B404FF2A3
:100E6000FF752B408D89AD0443EA1543CD89AD0450
:100E700043EA154383800483CD880587028470BDCF
:100E800070B5002400220023058C4FF6FF66354024
:100E90000584028C8388848B4FF68F752C404FF627
:100EA000FC752C400D882C434FF6FF552A400D89C8
:100EB0002D0642EA15424D882D0642EA1542234D81
:100EC000A84202D0274DA8421BD14FF2FF752A40FD
:100ED0004D892D0642EA15424FF6FF352A408D888E
:100EE0002D0642EA15424EF6FF752B404DF6FF7572
:100EF0002B408D892D0543EA1543CD892D0543EA05
:100F0000154383808483CD888587028470BD70B546
:100F1000002200230024058C4EF6FF763540058420
:100F2000038C8488828B48F6FF752A404FF6FF4574
:100F30002A400D882D0642EA15424DF6FF752B40DA
:100F40000D892D0743EA15434D881FE0002C014011
:100F50000004004000080040000C00400010004069
:100F60000014004000340140004C0140005001409A
:100F70000054014000180040001C004000200040C8
:100F80000040014000440140004801402D0743EA71
:100F90001543F94DA84202D0F84DA84206D14BF6B0
:100FA000FF752C408D89AD0544EA15448480828309
:100FB000CD88A0F84050038470BD828B4FF2FF3380
:100FC0001A408283828B0B0642EA13428283704767
:100FD000F0B50C461546002200210026078C4EF67F
:100FE000FF7C07EA0C070784828B018C27073E0CE5
:100FF00040F6FF473A402F0642EA17421F0742EAEF
:101000001742DD4FB8420ED0DC4FB8420BD0B0F1E2
:10101000804F08D0DA4FB84205D0DA4FB84202D03C
:10102000D94FB84206D14DF6FF77394046F4805784
:10103000394305E047F6FF57394044F480573943B8
:1010400082830184F0BD828B4FF6F3731A40828352
:10105000828B0A4382837047F0B50C461546002206
:1010600000210026078C4FF6FF6C07EA0C07078467
:10107000828B018C27063E0C4FF60C773A401F05F9
:1010800045EA17473A43BC4FB8420ED0BB4FB8426F
:101090000BD0B0F1804F08D0B94FB84205D0B94F4E
:1010A000B84202D0B84FB84206D14FF6FF57394088
:1010B00046F48077394305E04FF2FF57394044F456
:1010C0008077394382830184F0BD028B4FF2FF3376
:1010D0001A400283028B0B0642EA134202837047D6
:1010E000F0B50C461546002200210026078C4FF66D
:1010F000EF7C07EA0C070784028B018C27053E0C66
:1011000040F6FF473A401F0742EA17422F0642EADD
:101110001742994FB8420ED0984FB8420BD0B0F159
:10112000804F08D0964FB84205D0964FB84202D0B3
:10113000954FB84206D14FF6DF77394046F0100799
:10114000394305E04FF65F77394044F010073943E3
:1011500002830184F0BD028B4FF6F3731A400283C1
:10116000028B0A4302837047F0B50C4615460022F5
:101170000021068C4FF6FE773E400684028B018CE0
:101180004FF60C7632401E0545EA164632437A4E3B
:10119000B0420ED0794EB0420BD0B0F1804F08D0A3
:1011A000774EB04205D0774EB04202D0764EB04274
:1011B00006D14FF6FD76314044F00106314305E09B
:1011C0004FF6F576314044F0010631430283018445
:1011D000F0BD70B505460C46674885420ED067489D
:1011E00085420BD0B5F1804F08D06548854205D0C7
:1011F0006448854202D06448854200D100E000BFC7
:10120000208850B92389A28861882846FFF7ACFF5F
:10121000E1882846FFF79FFF25E0208804280AD1AF
:101220002389A28861882846FFF75AFFE18828466B
:10123000FFF74BFF17E0208808280AD12389A288EE
:1012400061882846FFF708FFE1882846FFF7FBFE84
:1012500009E02389A28861882846FFF7B9FEE18862
:101260002846FFF7AAFE70BD2DE9F04105460C4661
:1012700000260127608808B9022600E00026A08821
:10128000012801D1022700E001272088A0B9238985
:10129000A28861882846FFF767FFE1882846FFF7A4
:1012A0005AFF23893A4631462846FFF719FFE1885D
:1012B0002846FFF70AFF13E02389A28861882846A1
:1012C000FFF70EFFE1882846FFF7FFFE23893A4625
:1012D00031462846FFF748FFE1882846FFF73BFFE5
:1012E000BDE8F0810A884B881A438B881A43CB8863
:1012F0001A430B891A434B891A438B891A43A0F866
:10130000442070474FF6FF71818000210180C18029
:101310004180017270470021018041808180C1803D
:10132000018141818181C18170470021018041801B
:10133000012181800021C18001817047002101804D
:1013400041808180C180018141818181704721B1CB
:10135000028842F00102028004E002884FF6FE7328
:101360001A400280704789B1B0F8442042F400422C
:10137000A0F8442010E00000002C0140003401409F
:101380000004004000080040000C0040B0F8442079
:10139000C2F30E02A0F84420704710B51AB1838939
:1013A0000B43838104E08389CC43A4B2234083812F
:1013B00010BD8182704741EA0203A0F848307047AF
:1013C00010B51AB183890B43838104E08389CC4330
:1013D000A4B22340838110BD01894FF6F8721140F9
:1013E000018170470A46002101894FF68F73194029
:1013F00011430181704730B504460D462946204609
:10140000FFF7F0FF208940F00700208130BD2DE973
:10141000F04104460D4616461F46602D06D13B4658
:10142000012231462046FFF75BFE05E03B460122E4
:1014300031462046FFF798FE29462046FFF7D2FFA7
:10144000208940F007002081BDE8F08130B50C46CE
:1014500000210189C9B21D0642EA154525432943E9
:10146000018130BD2DE9F04105460E4617469846EC
:10147000002443463A4631462846FFF7E7FF2C89C9
:101480004FF6F8710C4044F007044FF68F710C4092
:1014900044F070042C81BDE8F081F0B504460D469F
:1014A00016461F463B46324629462046FFF7CEFFEA
:1014B000208940F480402081F0BD01858282704700
:1014C0000A46002101884FF68F73194011430180AD
:1014D0007047F0B50C4615461E4600210022002339
:1014E0000189028B038C4FF6F877394021434FF680
:1014F000FC473A4040F201173A434FF6DD773B4054
:10150000370545EA17473B43018102830384F0BD59
:101510000A460021018B4FF68F7319401143018356
:1015200070470A460021018B48F6FF7319401306E5
:1015300041EA1341018370470A460021818B4FF62F
:101540008F7319401143818370470A460021818BB4
:1015500048F6FF731940130641EA1341818370472F
:1015600021B1028842F08002028004E002884FF636
:101570007F731A400280704721B1828842F00402D2
:10158000828004E082884FF6FB731A4082807047A5
:1015900021B1828842F00802828004E082884FF6FE
:1015A000F7731A408280704721B1828842F00102AD
:1015B000828004E082884FF6FE731A408280704772
:1015C0000A460021018B4FF6F7731940114301833E
:1015D00070470A460021018B4FF2FF731940130632
:1015E00041EA1341018370470A460021818B4FF67F
:1015F000F77319401143818370470A460021818B9C
:101600004FF2FF731940130641EA1341818370477B
:101610000A460021018B4FF6FB73194011430183E9
:1016200070470A460021018B4FF6FF33194013061D
:1016300041EA1341018370470A460021818B4FF62E
:10164000FB7319401143818370470A460021818B47
:101650004FF6FF331940130641EA13418183704767
:101660000A460021018B4FF67F7319401143018315
:1016700070470A460021018BC1F30E01130641EAAF
:101680001341018370470A460021818B4FF67F7317
:1016900019401143818370470A460021818BC1F3B1
:1016A0000E01130641EA1341818370470A46002167
:1016B000018C4FF6FD7319401143018470470A46AF
:1016C0000021018C4FF6F7731940114301847047D4
:1016D0000A460021018C4FF6DF731940130541EAD9
:1016E0001341018470470A460021018C4FF67F7335
:1016F0001940130541EA1341018470470A4600214D
:10170000018C4FF6FF531940130641EA134101843F
:1017100070470A460021018C4FF2FF7319401306EF
:1017200041EA1341018470470A460021018C4DF6BD
:10173000FF731940130741EA13410184704730B524
:10174000002301248C40A3B2048CDD43ADB22C40B5
:101750000484048C02FA01F5ADB22C43048430BD3C
:1017600030B5002304248C40A3B2048CDD43ADB219
:101770002C400484048C02FA01F5ADB22C4304849D
:1017800030BD70B5034600200024184618300125EE
:101790008D40ACB21D8CE643B6B235401D8409B114
:1017A000082909D100EB6100056825F07005056086
:1017B0000568154305600CE00D1FADB200EB650038
:1017C000056825F4E04505600568160645EA1645F6
:1017D000056070BD21B1028842F00202028004E07F
:1017E00002884FF6FD731A400280704721B10288CB
:1017F00042F00402028004E002884FF6FB731A40B4
:101800000280704721B1828842F08002828004E029
:1018100082884FF67F731A408280704702884FF6A5
:10182000F7731A40028002880A4302807047828858
:101830004FF68F731A40828082880A4382807047F5
:1018400002894FF6F8731A40028102890A43028125
:10185000704702894FF67F731A40028102890A435A
:101860000281704781847047818570478186704707
:101870000187704781877047A0F840107047028841
:101880004FF6FF431A40028002880A4302807047E5
:101890000146888E70470146088F70470146888F41
:1018A00070470146B1F8400070470146888C704788
:1018B0000146088D704702460020138A0B4201D072
:1018C000012000E000207047CA430282704730B513
:1018D0000246002000230024158A05EA01039589A9
:1018E00005EA010413B10CB1012000E0002030BD75
:1018F000CA430282704700004FF0E021096921F0DD
:1019000004014FF0E0221161C21700EB5272D210B5
:101910001F4B1A70194609784FF47A7251431D4AC9
:101920001180704701461B4A12884A434FF0E0235A
:101930005A6100229A6101221A6100BF4FF0E02231
:10194000106910F0010F02D010F4803FF6D0002291
:101950004FF0E0231A619A61704701460C4A1278F1
:101960004A434FF0E0235A6100229A6101221A6132
:1019700000BF4FF0E022106910F0010F02D010F408
:10198000803FF6D000224FF0E0231A619A61704741
:10199000280000202A0000207047704770477546D5
:1019A00000F028F8AE4605006946534620F00700CF
:1019B000854618B020B5FEF7F3FCBDE820404FF097
:1019C00000064FF000074FF000084FF0000B21F029
:1019D0000701AC46ACE8C009ACE8C009ACE8C009F6
:1019E000ACE8C0098D4670470446AFF3008020463E
:1019F000FEF7C5FB004870472C00002001487047E7
:101A0000704700BF3000002001491820ABBEFEE740
:101A100026000200704710B5FFF7F0FF4FF00001FD
:101A2000016010BD441A0008000000202C000000D6
:101A300028010008701A00082C000020640600002D
:101A40004401000800A24A04000000000000000059
:101A50000102030406070809000000000102030454
:101A6000010203040607080902040608000000003A
:04000005080000ED02
:00000001FF
